:100000000EC020C01FC01EC01DC01CC01BC01AC017
:1000100019C018C017C016C015C014C013C01124D1
:100020001FBECFE5D2E0DEBFCDBF10E0A0E6B0E05E
:10003000E8E9F0E002C005900D92A636B107D9F7C5
:1000400021D028C0DDCF9C0190E080E0821793078B
:100050000CF00895EFECF7E03197F1F700C00000E5
:100060000196F4CF21E030E001C0220F6A95EAF753
:10007000892B29F488B32095282328BB089588B3B9
:10008000282BFBCF87E087BBB39B02C0C29AFCCF73
:08009000C298FACFF894FFCFEB
:0600980064006400010099
:040000050080006215
:00000001FF
