:100000000EC020C01FC01EC01DC01CC01BC01AC017
:1000100019C018C017C016C015C014C013C01124D1
:100020001FBECFE5D2E0DEBFCDBF10E0A0E6B0E05E
:10003000E6E7F1E002C005900D92A636B107D9F7C8
:100040003AD097C0DDCF98B321E030E001C0220F55
:100050008A95EAF72095292328BB08959C0190E012
:1000600080E0821793070CF00895EFECF7E03197EA
:10007000F1F700C000000196F4CF9C01972F232BCD
:1000800011F4862FE0CF88B321E030E001C0220FC9
:100090006A95EAF7822B88BB089526B330E0A90160
:1000A00002C0559547958A95E2F7CA0180959095CB
:1000B00081709927089587E087BBC39A83E090E019
:1000C000ECDF892B09F44DC082E090E0BCDFC091E9
:1000D0006200D091630010E000E080916000909198
:1000E0006100081719071CF110E000E08091600022
:1000F00090916100081719070CF783E090E0CDDFBD
:10010000892BE1F28091640090916500C80FD91F9E
:10011000C09A81E090E097DFCE01A0DF90E080E020
:1001200092DFC19ACE019ADF0F5F1F4FDFCF83E0CE
:1001300090E0B3DF892BC1F280916400909165005B
:10014000C81BD90BC09A81E090E07DDFCE0186DF2D
:1001500090E080E078DFC19ACE0180DF0F5F1F4F13
:10016000BCCFC29A81E090E06EDF90E080E06BDF70
:06017000A5CFF894FFCFBB
:06017600640064000100BA
:040000050080006215
:00000001FF
